{
  "contractName": "Storage",
  "abi": [
    {
      "inputs": [
        {
          "internalType": "address",
          "name": "",
          "type": "address"
        },
        {
          "internalType": "uint256",
          "name": "",
          "type": "uint256"
        }
      ],
      "name": "UserFiles",
      "outputs": [
        {
          "internalType": "string",
          "name": "ipsHash",
          "type": "string"
        }
      ],
      "stateMutability": "view",
      "type": "function"
    },
    {
      "inputs": [
        {
          "internalType": "address",
          "name": "",
          "type": "address"
        }
      ],
      "name": "isSet",
      "outputs": [
        {
          "internalType": "bool",
          "name": "",
          "type": "bool"
        }
      ],
      "stateMutability": "view",
      "type": "function"
    },
    {
      "inputs": [
        {
          "internalType": "address",
          "name": "",
          "type": "address"
        }
      ],
      "name": "lastID",
      "outputs": [
        {
          "internalType": "uint256",
          "name": "",
          "type": "uint256"
        }
      ],
      "stateMutability": "view",
      "type": "function"
    },
    {
      "inputs": [
        {
          "internalType": "address",
          "name": "_add",
          "type": "address"
        }
      ],
      "name": "getLast",
      "outputs": [
        {
          "internalType": "uint256",
          "name": "",
          "type": "uint256"
        }
      ],
      "stateMutability": "view",
      "type": "function"
    },
    {
      "inputs": [],
      "name": "getAll",
      "outputs": [
        {
          "components": [
            {
              "internalType": "string",
              "name": "ipsHash",
              "type": "string"
            }
          ],
          "internalType": "struct Storage.UserFile[]",
          "name": "",
          "type": "tuple[]"
        }
      ],
      "stateMutability": "view",
      "type": "function"
    },
    {
      "inputs": [
        {
          "internalType": "string",
          "name": "_ipsHash",
          "type": "string"
        }
      ],
      "name": "store",
      "outputs": [],
      "stateMutability": "nonpayable",
      "type": "function"
    }
  ],
  "bytecode": "0x608060405234801561001057600080fd5b506108be806100206000396000f3fe608060405234801561001057600080fd5b50600436106100625760003560e01c8063131a06801461006757806353ed51431461007c57806362273a381461009a57806374ebe3ec146100ba57806376082715146100da57806387ec75ac146100ed575b600080fd5b61007a610075366004610625565b61010d565b005b6100846101de565b6040516100919190610711565b60405180910390f35b6100ad6100a83660046105db565b610390565b60405161009191906107ce565b6100cd6100c83660046105db565b6103a2565b6040516100919190610779565b6100ad6100e83660046105db565b6103b7565b6101006100fb3660046105fc565b61040c565b6040516100919190610784565b3360009081526001602052604090205460ff161561018b576000610130336104b2565b6040805160208082018352858252336000908152808252838120858252825292909220815180519495509193909261016c928492910190610518565b5061018591503390506101808360016107d7565b6104cd565b506101db565b610194336104e9565b604080516020808201835283825233600090815280825283812081805282529290922081518051929391926101cc9284920190610518565b509050506101db3360016104cd565b50565b3360009081526001602052604090205460609060ff166102195760405162461bcd60e51b815260040161021090610797565b60405180910390fd5b6000610224336104b2565b905060008167ffffffffffffffff81111561024f57634e487b7160e01b600052604160045260246000fd5b60405190808252806020026020018201604052801561028857816020015b61027561059c565b81526020019060019003908161026d5790505b50905060005b82811015610389573360009081526020818152604080832084845282529182902082519182019092528154909190829082906102c990610806565b80601f01602080910402602001604051908101604052809291908181526020018280546102f590610806565b80156103425780601f1061031757610100808354040283529160200191610342565b820191906000526020600020905b81548152906001019060200180831161032557829003601f168201915b50505050508152505082828151811061036b57634e487b7160e01b600052603260045260246000fd5b6020026020010181905250808061038190610841565b91505061028e565b5091505090565b60026020526000908152604090205481565b60016020526000908152604090205460ff1681565b6001600160a01b03811660009081526001602052604081205460ff166103ef5760405162461bcd60e51b815260040161021090610797565b60016103fa836104b2565b61040491906107ef565b90505b919050565b600060208181529281526040808220909352908152208054819061042f90610806565b80601f016020809104026020016040519081016040528092919081815260200182805461045b90610806565b80156104a85780601f1061047d576101008083540402835291602001916104a8565b820191906000526020600020905b81548152906001019060200180831161048b57829003601f168201915b5050505050905081565b6001600160a01b031660009081526002602052604090205490565b6001600160a01b03909116600090815260026020526040902055565b6001600160a01b03166000908152600160208181526040808420805460ff191690931790925560029052812055565b82805461052490610806565b90600052602060002090601f016020900481019282610546576000855561058c565b82601f1061055f57805160ff191683800117855561058c565b8280016001018555821561058c579182015b8281111561058c578251825591602001919060010190610571565b506105989291506105af565b5090565b6040518060200160405280606081525090565b5b8082111561059857600081556001016105b0565b80356001600160a01b038116811461040757600080fd5b6000602082840312156105ec578081fd5b6105f5826105c4565b9392505050565b6000806040838503121561060e578081fd5b610617836105c4565b946020939093013593505050565b60006020808385031215610637578182fd5b823567ffffffffffffffff8082111561064e578384fd5b818501915085601f830112610661578384fd5b81358181111561067357610673610872565b604051601f8201601f191681018501838111828210171561069657610696610872565b60405281815283820185018810156106ac578586fd5b818585018683013790810190930193909352509392505050565b60008151808452815b818110156106eb576020818501810151868301820152016106cf565b818111156106fc5782602083870101525b50601f01601f19169290920160200192915050565b6000602080830181845280855180835260408601915060408482028701019250838701855b8281101561076c57878503603f19018452815151868652610759878701826106c6565b9550509285019290850190600101610736565b5092979650505050505050565b901515815260200190565b6000602082526105f560208301846106c6565b60208082526019908201527f4e4f2046696c657320666f722074686973206164647265737300000000000000604082015260600190565b90815260200190565b600082198211156107ea576107ea61085c565b500190565b6000828210156108015761080161085c565b500390565b60028104600182168061081a57607f821691505b6020821081141561083b57634e487b7160e01b600052602260045260246000fd5b50919050565b60006000198214156108555761085561085c565b5060010190565b634e487b7160e01b600052601160045260246000fd5b634e487b7160e01b600052604160045260246000fdfea2646970667358221220fcca1eb56486df92b6ae7005f8b69cbd42d82862d3d680f941d7283b7699c30f64736f6c63430008000033",
  "immutableReferences": {},
  "source": "// SPDX-License-Identifier: GPL-3.0\n\npragma solidity >=0.8.0 <0.9.0;\n\n/**\n * @title Storage\n * @dev Store ipfs hash values, track the stored values for every address who calls the contract\n */\ncontract Storage {\n    struct UserFile {\n        string ipsHash;\n        //string description;\n    }\n\n    // use to link an address with the stored files\n    mapping(address => mapping(uint256 => UserFile)) public UserFiles;\n    // use to check if an address already store some files\n    mapping(address => bool) public isSet;\n    // use the address to track the number of stored files\n    mapping(address => uint256) public lastID;\n\n    function setUser(address _add) internal {\n        isSet[_add] = true;\n        lastID[_add] = 0; // needed?\n    }\n\n    function updateUser(address _add, uint256 _key) internal {\n        lastID[_add] = _key;\n    }\n\n    function getLastUserID(address _add) internal view returns (uint256) {\n        return lastID[_add];\n    }\n\n    function getLast(address _add) external view returns (uint256) {\n        require(isSet[_add], \"NO Files for this address\");\n        return (getLastUserID(_add) - 1);\n    }\n\n    function getAll() external view returns (UserFile[] memory) {\n        require(isSet[msg.sender], \"NO Files for this address\");\n        uint256 size = getLastUserID(msg.sender);\n        UserFile[] memory allFiles = new UserFile[](size);\n        for (uint256 i = 0; i < size; i++) {\n            allFiles[i] = UserFiles[msg.sender][i];\n        }\n        return allFiles;\n    }\n\n    function store(string memory _ipsHash) external {\n        if (isSet[msg.sender]) {\n            uint256 key = getLastUserID(msg.sender);\n            UserFiles[msg.sender][key] = UserFile(_ipsHash);\n            updateUser(msg.sender, key + 1);\n        } else {\n            setUser(msg.sender);\n            UserFiles[msg.sender][0] = UserFile(_ipsHash);\n            updateUser(msg.sender, 1);\n        }\n    }\n}\n",
  "sourcePath": "C:\\Users\\Asus\\Documents\\data_storage-dev\\contracts\\Storage.sol",
  "compiler": {
    "name": "solc",
    "version": "0.8.0+commit.c7dfd78e.Emscripten.clang"
  },
  "schemaVersion": "3.4.16",
  "updatedAt": "2023-12-26T21:53:17.318Z",
  "devdoc": {
    "details": "Store ipfs hash values, track the stored values for every address who calls the contract",
    "kind": "dev",
    "methods": {},
    "title": "Storage",
    "version": 1
  },
  "userdoc": {
    "kind": "user",
    "methods": {},
    "version": 1
  }
}